{
	"SimpleStorage.sol": {
		"SimpleStorage": {
			"abi": [
				{
					"inputs": [
						{
							"internalType": "string",
							"name": "",
							"type": "string"
						}
					],
					"name": "nameToFavoriteNumber",
					"outputs": [
						{
							"internalType": "uint256",
							"name": "",
							"type": "uint256"
						}
					],
					"stateMutability": "view",
					"type": "function"
				},
				{
					"inputs": [
						{
							"internalType": "uint256",
							"name": "",
							"type": "uint256"
						}
					],
					"name": "people",
					"outputs": [
						{
							"internalType": "uint256",
							"name": "favoriteNumber",
							"type": "uint256"
						},
						{
							"internalType": "string",
							"name": "name",
							"type": "string"
						}
					],
					"stateMutability": "view",
					"type": "function"
				},
				{
					"inputs": [],
					"name": "retrieve",
					"outputs": [
						{
							"internalType": "uint256",
							"name": "",
							"type": "uint256"
						}
					],
					"stateMutability": "view",
					"type": "function"
				},
				{
					"inputs": [
						{
							"internalType": "uint256",
							"name": "_favoriteNumber",
							"type": "uint256"
						}
					],
					"name": "store",
					"outputs": [],
					"stateMutability": "nonpayable",
					"type": "function"
				}
			],
			"devdoc": {
				"kind": "dev",
				"methods": {},
				"version": 1
			},
			"evm": {
				"assembly": "    /* \"SimpleStorage.sol\":138:795  contract SimpleStorage {... */\n  mstore(0x40, 0x80)\n  callvalue\n  dup1\n  iszero\n  tag_1\n  jumpi\n  0x00\n  dup1\n  revert\ntag_1:\n  pop\n  dataSize(sub_0)\n  dup1\n  dataOffset(sub_0)\n  0x00\n  codecopy\n  0x00\n  return\nstop\n\nsub_0: assembly {\n        /* \"SimpleStorage.sol\":138:795  contract SimpleStorage {... */\n      mstore(0x40, 0x80)\n      callvalue\n      dup1\n      iszero\n      tag_1\n      jumpi\n      0x00\n      dup1\n      revert\n    tag_1:\n      pop\n      jumpi(tag_2, lt(calldatasize, 0x04))\n      shr(0xe0, calldataload(0x00))\n      dup1\n      0x2e64cec1\n      eq\n      tag_3\n      jumpi\n      dup1\n      0x6057361d\n      eq\n      tag_4\n      jumpi\n      dup1\n      0x8bab8dd5\n      eq\n      tag_5\n      jumpi\n      dup1\n      0x9e7a13ad\n      eq\n      tag_6\n      jumpi\n    tag_2:\n      0x00\n      dup1\n      revert\n        /* \"SimpleStorage.sol\":505:592  function retrieve() public view returns (uint256){... */\n    tag_3:\n      tag_7\n      tag_8\n      jump\t// in\n    tag_7:\n      mload(0x40)\n      tag_9\n      swap2\n      swap1\n      tag_10\n      jump\t// in\n    tag_9:\n      mload(0x40)\n      dup1\n      swap2\n      sub\n      swap1\n      return\n        /* \"SimpleStorage.sol\":399:495  function store(uint256 _favoriteNumber) public {... */\n    tag_4:\n      tag_11\n      0x04\n      dup1\n      calldatasize\n      sub\n      dup2\n      add\n      swap1\n      tag_12\n      swap2\n      swap1\n      tag_13\n      jump\t// in\n    tag_12:\n      tag_14\n      jump\t// in\n    tag_11:\n      stop\n        /* \"SimpleStorage.sol\":338:392  mapping(string => uint256) public nameToFavoriteNumber */\n    tag_5:\n      tag_15\n      0x04\n      dup1\n      calldatasize\n      sub\n      dup2\n      add\n      swap1\n      tag_16\n      swap2\n      swap1\n      tag_17\n      jump\t// in\n    tag_16:\n      tag_18\n      jump\t// in\n    tag_15:\n      mload(0x40)\n      tag_19\n      swap2\n      swap1\n      tag_10\n      jump\t// in\n    tag_19:\n      mload(0x40)\n      dup1\n      swap2\n      sub\n      swap1\n      return\n        /* \"SimpleStorage.sol\":309:331  People[] public people */\n    tag_6:\n      tag_20\n      0x04\n      dup1\n      calldatasize\n      sub\n      dup2\n      add\n      swap1\n      tag_21\n      swap2\n      swap1\n      tag_13\n      jump\t// in\n    tag_21:\n      tag_22\n      jump\t// in\n    tag_20:\n      mload(0x40)\n      tag_23\n      swap3\n      swap2\n      swap1\n      tag_24\n      jump\t// in\n    tag_23:\n      mload(0x40)\n      dup1\n      swap2\n      sub\n      swap1\n      return\n        /* \"SimpleStorage.sol\":505:592  function retrieve() public view returns (uint256){... */\n    tag_8:\n        /* \"SimpleStorage.sol\":546:553  uint256 */\n      0x00\n        /* \"SimpleStorage.sol\":571:585  favoriteNumber */\n      dup1\n      sload\n        /* \"SimpleStorage.sol\":564:585  return favoriteNumber */\n      swap1\n      pop\n        /* \"SimpleStorage.sol\":505:592  function retrieve() public view returns (uint256){... */\n      swap1\n      jump\t// out\n        /* \"SimpleStorage.sol\":399:495  function store(uint256 _favoriteNumber) public {... */\n    tag_14:\n        /* \"SimpleStorage.sol\":473:488  _favoriteNumber */\n      dup1\n        /* \"SimpleStorage.sol\":456:470  favoriteNumber */\n      0x00\n        /* \"SimpleStorage.sol\":456:488  favoriteNumber = _favoriteNumber */\n      dup2\n      swap1\n      sstore\n      pop\n        /* \"SimpleStorage.sol\":399:495  function store(uint256 _favoriteNumber) public {... */\n      pop\n      jump\t// out\n        /* \"SimpleStorage.sol\":338:392  mapping(string => uint256) public nameToFavoriteNumber */\n    tag_18:\n      0x02\n      dup2\n      dup1\n      mload\n      0x20\n      dup2\n      add\n      dup3\n      add\n      dup1\n      mload\n      dup5\n      dup3\n      mstore\n      0x20\n      dup4\n      add\n      0x20\n      dup6\n      add\n      keccak256\n      dup2\n      dup4\n      mstore\n      dup1\n      swap6\n      pop\n      pop\n      pop\n      pop\n      pop\n      pop\n      0x00\n      swap2\n      pop\n      swap1\n      pop\n      sload\n      dup2\n      jump\t// out\n        /* \"SimpleStorage.sol\":309:331  People[] public people */\n    tag_22:\n      0x01\n      dup2\n      dup2\n      sload\n      dup2\n      lt\n      tag_27\n      jumpi\n      0x00\n      dup1\n      revert\n    tag_27:\n      swap1\n      0x00\n      mstore\n      keccak256(0x00, 0x20)\n      swap1\n      0x02\n      mul\n      add\n      0x00\n      swap2\n      pop\n      swap1\n      pop\n      dup1\n      0x00\n      add\n      sload\n      swap1\n      dup1\n      0x01\n      add\n      dup1\n      sload\n      tag_29\n      swap1\n      tag_30\n      jump\t// in\n    tag_29:\n      dup1\n      0x1f\n      add\n      0x20\n      dup1\n      swap2\n      div\n      mul\n      0x20\n      add\n      mload(0x40)\n      swap1\n      dup2\n      add\n      0x40\n      mstore\n      dup1\n      swap3\n      swap2\n      swap1\n      dup2\n      dup2\n      mstore\n      0x20\n      add\n      dup3\n      dup1\n      sload\n      tag_31\n      swap1\n      tag_30\n      jump\t// in\n    tag_31:\n      dup1\n      iszero\n      tag_32\n      jumpi\n      dup1\n      0x1f\n      lt\n      tag_33\n      jumpi\n      0x0100\n      dup1\n      dup4\n      sload\n      div\n      mul\n      dup4\n      mstore\n      swap2\n      0x20\n      add\n      swap2\n      jump(tag_32)\n    tag_33:\n      dup3\n      add\n      swap2\n      swap1\n      0x00\n      mstore\n      keccak256(0x00, 0x20)\n      swap1\n    tag_34:\n      dup2\n      sload\n      dup2\n      mstore\n      swap1\n      0x01\n      add\n      swap1\n      0x20\n      add\n      dup1\n      dup4\n      gt\n      tag_34\n      jumpi\n      dup3\n      swap1\n      sub\n      0x1f\n      and\n      dup3\n      add\n      swap2\n    tag_32:\n      pop\n      pop\n      pop\n      pop\n      pop\n      swap1\n      pop\n      dup3\n      jump\t// out\n        /* \"#utility.yul\":7:419   */\n    tag_36:\n        /* \"#utility.yul\":85:90   */\n      0x00\n        /* \"#utility.yul\":110:176   */\n      tag_38\n        /* \"#utility.yul\":126:175   */\n      tag_39\n        /* \"#utility.yul\":168:174   */\n      dup5\n        /* \"#utility.yul\":126:175   */\n      tag_40\n      jump\t// in\n    tag_39:\n        /* \"#utility.yul\":110:176   */\n      tag_41\n      jump\t// in\n    tag_38:\n        /* \"#utility.yul\":101:176   */\n      swap1\n      pop\n        /* \"#utility.yul\":199:205   */\n      dup3\n        /* \"#utility.yul\":192:197   */\n      dup2\n        /* \"#utility.yul\":185:206   */\n      mstore\n        /* \"#utility.yul\":237:241   */\n      0x20\n        /* \"#utility.yul\":230:235   */\n      dup2\n        /* \"#utility.yul\":226:242   */\n      add\n        /* \"#utility.yul\":275:278   */\n      dup5\n        /* \"#utility.yul\":266:272   */\n      dup5\n        /* \"#utility.yul\":261:264   */\n      dup5\n        /* \"#utility.yul\":257:273   */\n      add\n        /* \"#utility.yul\":254:279   */\n      gt\n        /* \"#utility.yul\":251:363   */\n      iszero\n      tag_42\n      jumpi\n        /* \"#utility.yul\":282:361   */\n      tag_43\n      tag_44\n      jump\t// in\n    tag_43:\n        /* \"#utility.yul\":251:363   */\n    tag_42:\n        /* \"#utility.yul\":372:413   */\n      tag_45\n        /* \"#utility.yul\":406:412   */\n      dup5\n        /* \"#utility.yul\":401:404   */\n      dup3\n        /* \"#utility.yul\":396:399   */\n      dup6\n        /* \"#utility.yul\":372:413   */\n      tag_46\n      jump\t// in\n    tag_45:\n        /* \"#utility.yul\":91:419   */\n      pop\n        /* \"#utility.yul\":7:419   */\n      swap4\n      swap3\n      pop\n      pop\n      pop\n      jump\t// out\n        /* \"#utility.yul\":439:779   */\n    tag_47:\n        /* \"#utility.yul\":495:500   */\n      0x00\n        /* \"#utility.yul\":544:547   */\n      dup3\n        /* \"#utility.yul\":537:541   */\n      0x1f\n        /* \"#utility.yul\":529:535   */\n      dup4\n        /* \"#utility.yul\":525:542   */\n      add\n        /* \"#utility.yul\":521:548   */\n      slt\n        /* \"#utility.yul\":511:633   */\n      tag_49\n      jumpi\n        /* \"#utility.yul\":552:631   */\n      tag_50\n      tag_51\n      jump\t// in\n    tag_50:\n        /* \"#utility.yul\":511:633   */\n    tag_49:\n        /* \"#utility.yul\":669:675   */\n      dup2\n        /* \"#utility.yul\":656:676   */\n      calldataload\n        /* \"#utility.yul\":694:773   */\n      tag_52\n        /* \"#utility.yul\":769:772   */\n      dup5\n        /* \"#utility.yul\":761:767   */\n      dup3\n        /* \"#utility.yul\":754:758   */\n      0x20\n        /* \"#utility.yul\":746:752   */\n      dup7\n        /* \"#utility.yul\":742:759   */\n      add\n        /* \"#utility.yul\":694:773   */\n      tag_36\n      jump\t// in\n    tag_52:\n        /* \"#utility.yul\":685:773   */\n      swap2\n      pop\n        /* \"#utility.yul\":501:779   */\n      pop\n        /* \"#utility.yul\":439:779   */\n      swap3\n      swap2\n      pop\n      pop\n      jump\t// out\n        /* \"#utility.yul\":785:924   */\n    tag_53:\n        /* \"#utility.yul\":831:836   */\n      0x00\n        /* \"#utility.yul\":869:875   */\n      dup2\n        /* \"#utility.yul\":856:876   */\n      calldataload\n        /* \"#utility.yul\":847:876   */\n      swap1\n      pop\n        /* \"#utility.yul\":885:918   */\n      tag_55\n        /* \"#utility.yul\":912:917   */\n      dup2\n        /* \"#utility.yul\":885:918   */\n      tag_56\n      jump\t// in\n    tag_55:\n        /* \"#utility.yul\":785:924   */\n      swap3\n      swap2\n      pop\n      pop\n      jump\t// out\n        /* \"#utility.yul\":930:1439   */\n    tag_17:\n        /* \"#utility.yul\":999:1005   */\n      0x00\n        /* \"#utility.yul\":1048:1050   */\n      0x20\n        /* \"#utility.yul\":1036:1045   */\n      dup3\n        /* \"#utility.yul\":1027:1034   */\n      dup5\n        /* \"#utility.yul\":1023:1046   */\n      sub\n        /* \"#utility.yul\":1019:1051   */\n      slt\n        /* \"#utility.yul\":1016:1135   */\n      iszero\n      tag_58\n      jumpi\n        /* \"#utility.yul\":1054:1133   */\n      tag_59\n      tag_60\n      jump\t// in\n    tag_59:\n        /* \"#utility.yul\":1016:1135   */\n    tag_58:\n        /* \"#utility.yul\":1202:1203   */\n      0x00\n        /* \"#utility.yul\":1191:1200   */\n      dup3\n        /* \"#utility.yul\":1187:1204   */\n      add\n        /* \"#utility.yul\":1174:1205   */\n      calldataload\n        /* \"#utility.yul\":1232:1250   */\n      0xffffffffffffffff\n        /* \"#utility.yul\":1224:1230   */\n      dup2\n        /* \"#utility.yul\":1221:1251   */\n      gt\n        /* \"#utility.yul\":1218:1335   */\n      iszero\n      tag_61\n      jumpi\n        /* \"#utility.yul\":1254:1333   */\n      tag_62\n      tag_63\n      jump\t// in\n    tag_62:\n        /* \"#utility.yul\":1218:1335   */\n    tag_61:\n        /* \"#utility.yul\":1359:1422   */\n      tag_64\n        /* \"#utility.yul\":1414:1421   */\n      dup5\n        /* \"#utility.yul\":1405:1411   */\n      dup3\n        /* \"#utility.yul\":1394:1403   */\n      dup6\n        /* \"#utility.yul\":1390:1412   */\n      add\n        /* \"#utility.yul\":1359:1422   */\n      tag_47\n      jump\t// in\n    tag_64:\n        /* \"#utility.yul\":1349:1422   */\n      swap2\n      pop\n        /* \"#utility.yul\":1145:1432   */\n      pop\n        /* \"#utility.yul\":930:1439   */\n      swap3\n      swap2\n      pop\n      pop\n      jump\t// out\n        /* \"#utility.yul\":1445:1774   */\n    tag_13:\n        /* \"#utility.yul\":1504:1510   */\n      0x00\n        /* \"#utility.yul\":1553:1555   */\n      0x20\n        /* \"#utility.yul\":1541:1550   */\n      dup3\n        /* \"#utility.yul\":1532:1539   */\n      dup5\n        /* \"#utility.yul\":1528:1551   */\n      sub\n        /* \"#utility.yul\":1524:1556   */\n      slt\n        /* \"#utility.yul\":1521:1640   */\n      iszero\n      tag_66\n      jumpi\n        /* \"#utility.yul\":1559:1638   */\n      tag_67\n      tag_60\n      jump\t// in\n    tag_67:\n        /* \"#utility.yul\":1521:1640   */\n    tag_66:\n        /* \"#utility.yul\":1679:1680   */\n      0x00\n        /* \"#utility.yul\":1704:1757   */\n      tag_68\n        /* \"#utility.yul\":1749:1756   */\n      dup5\n        /* \"#utility.yul\":1740:1746   */\n      dup3\n        /* \"#utility.yul\":1729:1738   */\n      dup6\n        /* \"#utility.yul\":1725:1747   */\n      add\n        /* \"#utility.yul\":1704:1757   */\n      tag_53\n      jump\t// in\n    tag_68:\n        /* \"#utility.yul\":1694:1757   */\n      swap2\n      pop\n        /* \"#utility.yul\":1650:1767   */\n      pop\n        /* \"#utility.yul\":1445:1774   */\n      swap3\n      swap2\n      pop\n      pop\n      jump\t// out\n        /* \"#utility.yul\":1780:2144   */\n    tag_69:\n        /* \"#utility.yul\":1868:1871   */\n      0x00\n        /* \"#utility.yul\":1896:1935   */\n      tag_71\n        /* \"#utility.yul\":1929:1934   */\n      dup3\n        /* \"#utility.yul\":1896:1935   */\n      tag_72\n      jump\t// in\n    tag_71:\n        /* \"#utility.yul\":1951:2022   */\n      tag_73\n        /* \"#utility.yul\":2015:2021   */\n      dup2\n        /* \"#utility.yul\":2010:2013   */\n      dup6\n        /* \"#utility.yul\":1951:2022   */\n      tag_74\n      jump\t// in\n    tag_73:\n        /* \"#utility.yul\":1944:2022   */\n      swap4\n      pop\n        /* \"#utility.yul\":2031:2083   */\n      tag_75\n        /* \"#utility.yul\":2076:2082   */\n      dup2\n        /* \"#utility.yul\":2071:2074   */\n      dup6\n        /* \"#utility.yul\":2064:2068   */\n      0x20\n        /* \"#utility.yul\":2057:2062   */\n      dup7\n        /* \"#utility.yul\":2053:2069   */\n      add\n        /* \"#utility.yul\":2031:2083   */\n      tag_76\n      jump\t// in\n    tag_75:\n        /* \"#utility.yul\":2108:2137   */\n      tag_77\n        /* \"#utility.yul\":2130:2136   */\n      dup2\n        /* \"#utility.yul\":2108:2137   */\n      tag_78\n      jump\t// in\n    tag_77:\n        /* \"#utility.yul\":2103:2106   */\n      dup5\n        /* \"#utility.yul\":2099:2138   */\n      add\n        /* \"#utility.yul\":2092:2138   */\n      swap2\n      pop\n        /* \"#utility.yul\":1872:2144   */\n      pop\n        /* \"#utility.yul\":1780:2144   */\n      swap3\n      swap2\n      pop\n      pop\n      jump\t// out\n        /* \"#utility.yul\":2150:2268   */\n    tag_79:\n        /* \"#utility.yul\":2237:2261   */\n      tag_81\n        /* \"#utility.yul\":2255:2260   */\n      dup2\n        /* \"#utility.yul\":2237:2261   */\n      tag_82\n      jump\t// in\n    tag_81:\n        /* \"#utility.yul\":2232:2235   */\n      dup3\n        /* \"#utility.yul\":2225:2262   */\n      mstore\n        /* \"#utility.yul\":2150:2268   */\n      pop\n      pop\n      jump\t// out\n        /* \"#utility.yul\":2274:2496   */\n    tag_10:\n        /* \"#utility.yul\":2367:2371   */\n      0x00\n        /* \"#utility.yul\":2405:2407   */\n      0x20\n        /* \"#utility.yul\":2394:2403   */\n      dup3\n        /* \"#utility.yul\":2390:2408   */\n      add\n        /* \"#utility.yul\":2382:2408   */\n      swap1\n      pop\n        /* \"#utility.yul\":2418:2489   */\n      tag_84\n        /* \"#utility.yul\":2486:2487   */\n      0x00\n        /* \"#utility.yul\":2475:2484   */\n      dup4\n        /* \"#utility.yul\":2471:2488   */\n      add\n        /* \"#utility.yul\":2462:2468   */\n      dup5\n        /* \"#utility.yul\":2418:2489   */\n      tag_79\n      jump\t// in\n    tag_84:\n        /* \"#utility.yul\":2274:2496   */\n      swap3\n      swap2\n      pop\n      pop\n      jump\t// out\n        /* \"#utility.yul\":2502:2925   */\n    tag_24:\n        /* \"#utility.yul\":2643:2647   */\n      0x00\n        /* \"#utility.yul\":2681:2683   */\n      0x40\n        /* \"#utility.yul\":2670:2679   */\n      dup3\n        /* \"#utility.yul\":2666:2684   */\n      add\n        /* \"#utility.yul\":2658:2684   */\n      swap1\n      pop\n        /* \"#utility.yul\":2694:2765   */\n      tag_86\n        /* \"#utility.yul\":2762:2763   */\n      0x00\n        /* \"#utility.yul\":2751:2760   */\n      dup4\n        /* \"#utility.yul\":2747:2764   */\n      add\n        /* \"#utility.yul\":2738:2744   */\n      dup6\n        /* \"#utility.yul\":2694:2765   */\n      tag_79\n      jump\t// in\n    tag_86:\n        /* \"#utility.yul\":2812:2821   */\n      dup2\n        /* \"#utility.yul\":2806:2810   */\n      dup2\n        /* \"#utility.yul\":2802:2822   */\n      sub\n        /* \"#utility.yul\":2797:2799   */\n      0x20\n        /* \"#utility.yul\":2786:2795   */\n      dup4\n        /* \"#utility.yul\":2782:2800   */\n      add\n        /* \"#utility.yul\":2775:2823   */\n      mstore\n        /* \"#utility.yul\":2840:2918   */\n      tag_87\n        /* \"#utility.yul\":2913:2917   */\n      dup2\n        /* \"#utility.yul\":2904:2910   */\n      dup5\n        /* \"#utility.yul\":2840:2918   */\n      tag_69\n      jump\t// in\n    tag_87:\n        /* \"#utility.yul\":2832:2918   */\n      swap1\n      pop\n        /* \"#utility.yul\":2502:2925   */\n      swap4\n      swap3\n      pop\n      pop\n      pop\n      jump\t// out\n        /* \"#utility.yul\":2931:3060   */\n    tag_41:\n        /* \"#utility.yul\":2965:2971   */\n      0x00\n        /* \"#utility.yul\":2992:3012   */\n      tag_89\n      tag_90\n      jump\t// in\n    tag_89:\n        /* \"#utility.yul\":2982:3012   */\n      swap1\n      pop\n        /* \"#utility.yul\":3021:3054   */\n      tag_91\n        /* \"#utility.yul\":3049:3053   */\n      dup3\n        /* \"#utility.yul\":3041:3047   */\n      dup3\n        /* \"#utility.yul\":3021:3054   */\n      tag_92\n      jump\t// in\n    tag_91:\n        /* \"#utility.yul\":2931:3060   */\n      swap2\n      swap1\n      pop\n      jump\t// out\n        /* \"#utility.yul\":3066:3141   */\n    tag_90:\n        /* \"#utility.yul\":3099:3105   */\n      0x00\n        /* \"#utility.yul\":3132:3134   */\n      0x40\n        /* \"#utility.yul\":3126:3135   */\n      mload\n        /* \"#utility.yul\":3116:3135   */\n      swap1\n      pop\n        /* \"#utility.yul\":3066:3141   */\n      swap1\n      jump\t// out\n        /* \"#utility.yul\":3147:3455   */\n    tag_40:\n        /* \"#utility.yul\":3209:3213   */\n      0x00\n        /* \"#utility.yul\":3299:3317   */\n      0xffffffffffffffff\n        /* \"#utility.yul\":3291:3297   */\n      dup3\n        /* \"#utility.yul\":3288:3318   */\n      gt\n        /* \"#utility.yul\":3285:3341   */\n      iszero\n      tag_95\n      jumpi\n        /* \"#utility.yul\":3321:3339   */\n      tag_96\n      tag_97\n      jump\t// in\n    tag_96:\n        /* \"#utility.yul\":3285:3341   */\n    tag_95:\n        /* \"#utility.yul\":3359:3388   */\n      tag_98\n        /* \"#utility.yul\":3381:3387   */\n      dup3\n        /* \"#utility.yul\":3359:3388   */\n      tag_78\n      jump\t// in\n    tag_98:\n        /* \"#utility.yul\":3351:3388   */\n      swap1\n      pop\n        /* \"#utility.yul\":3443:3447   */\n      0x20\n        /* \"#utility.yul\":3437:3441   */\n      dup2\n        /* \"#utility.yul\":3433:3448   */\n      add\n        /* \"#utility.yul\":3425:3448   */\n      swap1\n      pop\n        /* \"#utility.yul\":3147:3455   */\n      swap2\n      swap1\n      pop\n      jump\t// out\n        /* \"#utility.yul\":3461:3560   */\n    tag_72:\n        /* \"#utility.yul\":3513:3519   */\n      0x00\n        /* \"#utility.yul\":3547:3552   */\n      dup2\n        /* \"#utility.yul\":3541:3553   */\n      mload\n        /* \"#utility.yul\":3531:3553   */\n      swap1\n      pop\n        /* \"#utility.yul\":3461:3560   */\n      swap2\n      swap1\n      pop\n      jump\t// out\n        /* \"#utility.yul\":3566:3735   */\n    tag_74:\n        /* \"#utility.yul\":3650:3661   */\n      0x00\n        /* \"#utility.yul\":3684:3690   */\n      dup3\n        /* \"#utility.yul\":3679:3682   */\n      dup3\n        /* \"#utility.yul\":3672:3691   */\n      mstore\n        /* \"#utility.yul\":3724:3728   */\n      0x20\n        /* \"#utility.yul\":3719:3722   */\n      dup3\n        /* \"#utility.yul\":3715:3729   */\n      add\n        /* \"#utility.yul\":3700:3729   */\n      swap1\n      pop\n        /* \"#utility.yul\":3566:3735   */\n      swap3\n      swap2\n      pop\n      pop\n      jump\t// out\n        /* \"#utility.yul\":3741:3818   */\n    tag_82:\n        /* \"#utility.yul\":3778:3785   */\n      0x00\n        /* \"#utility.yul\":3807:3812   */\n      dup2\n        /* \"#utility.yul\":3796:3812   */\n      swap1\n      pop\n        /* \"#utility.yul\":3741:3818   */\n      swap2\n      swap1\n      pop\n      jump\t// out\n        /* \"#utility.yul\":3824:3978   */\n    tag_46:\n        /* \"#utility.yul\":3908:3914   */\n      dup3\n        /* \"#utility.yul\":3903:3906   */\n      dup2\n        /* \"#utility.yul\":3898:3901   */\n      dup4\n        /* \"#utility.yul\":3885:3915   */\n      calldatacopy\n        /* \"#utility.yul\":3970:3971   */\n      0x00\n        /* \"#utility.yul\":3961:3967   */\n      dup4\n        /* \"#utility.yul\":3956:3959   */\n      dup4\n        /* \"#utility.yul\":3952:3968   */\n      add\n        /* \"#utility.yul\":3945:3972   */\n      mstore\n        /* \"#utility.yul\":3824:3978   */\n      pop\n      pop\n      pop\n      jump\t// out\n        /* \"#utility.yul\":3984:4291   */\n    tag_76:\n        /* \"#utility.yul\":4052:4053   */\n      0x00\n        /* \"#utility.yul\":4062:4175   */\n    tag_104:\n        /* \"#utility.yul\":4076:4082   */\n      dup4\n        /* \"#utility.yul\":4073:4074   */\n      dup2\n        /* \"#utility.yul\":4070:4083   */\n      lt\n        /* \"#utility.yul\":4062:4175   */\n      iszero\n      tag_106\n      jumpi\n        /* \"#utility.yul\":4161:4162   */\n      dup1\n        /* \"#utility.yul\":4156:4159   */\n      dup3\n        /* \"#utility.yul\":4152:4163   */\n      add\n        /* \"#utility.yul\":4146:4164   */\n      mload\n        /* \"#utility.yul\":4142:4143   */\n      dup2\n        /* \"#utility.yul\":4137:4140   */\n      dup5\n        /* \"#utility.yul\":4133:4144   */\n      add\n        /* \"#utility.yul\":4126:4165   */\n      mstore\n        /* \"#utility.yul\":4098:4100   */\n      0x20\n        /* \"#utility.yul\":4095:4096   */\n      dup2\n        /* \"#utility.yul\":4091:4101   */\n      add\n        /* \"#utility.yul\":4086:4101   */\n      swap1\n      pop\n        /* \"#utility.yul\":4062:4175   */\n      jump(tag_104)\n    tag_106:\n        /* \"#utility.yul\":4193:4199   */\n      dup4\n        /* \"#utility.yul\":4190:4191   */\n      dup2\n        /* \"#utility.yul\":4187:4200   */\n      gt\n        /* \"#utility.yul\":4184:4285   */\n      iszero\n      tag_107\n      jumpi\n        /* \"#utility.yul\":4273:4274   */\n      0x00\n        /* \"#utility.yul\":4264:4270   */\n      dup5\n        /* \"#utility.yul\":4259:4262   */\n      dup5\n        /* \"#utility.yul\":4255:4271   */\n      add\n        /* \"#utility.yul\":4248:4275   */\n      mstore\n        /* \"#utility.yul\":4184:4285   */\n    tag_107:\n        /* \"#utility.yul\":4033:4291   */\n      pop\n        /* \"#utility.yul\":3984:4291   */\n      pop\n      pop\n      pop\n      jump\t// out\n        /* \"#utility.yul\":4297:4617   */\n    tag_30:\n        /* \"#utility.yul\":4341:4347   */\n      0x00\n        /* \"#utility.yul\":4378:4379   */\n      0x02\n        /* \"#utility.yul\":4372:4376   */\n      dup3\n        /* \"#utility.yul\":4368:4380   */\n      div\n        /* \"#utility.yul\":4358:4380   */\n      swap1\n      pop\n        /* \"#utility.yul\":4425:4426   */\n      0x01\n        /* \"#utility.yul\":4419:4423   */\n      dup3\n        /* \"#utility.yul\":4415:4427   */\n      and\n        /* \"#utility.yul\":4446:4464   */\n      dup1\n        /* \"#utility.yul\":4436:4517   */\n      tag_109\n      jumpi\n        /* \"#utility.yul\":4502:4506   */\n      0x7f\n        /* \"#utility.yul\":4494:4500   */\n      dup3\n        /* \"#utility.yul\":4490:4507   */\n      and\n        /* \"#utility.yul\":4480:4507   */\n      swap2\n      pop\n        /* \"#utility.yul\":4436:4517   */\n    tag_109:\n        /* \"#utility.yul\":4564:4566   */\n      0x20\n        /* \"#utility.yul\":4556:4562   */\n      dup3\n        /* \"#utility.yul\":4553:4567   */\n      lt\n        /* \"#utility.yul\":4533:4551   */\n      dup2\n        /* \"#utility.yul\":4530:4568   */\n      eq\n        /* \"#utility.yul\":4527:4611   */\n      iszero\n      tag_110\n      jumpi\n        /* \"#utility.yul\":4583:4601   */\n      tag_111\n      tag_112\n      jump\t// in\n    tag_111:\n        /* \"#utility.yul\":4527:4611   */\n    tag_110:\n        /* \"#utility.yul\":4348:4617   */\n      pop\n        /* \"#utility.yul\":4297:4617   */\n      swap2\n      swap1\n      pop\n      jump\t// out\n        /* \"#utility.yul\":4623:4904   */\n    tag_92:\n        /* \"#utility.yul\":4706:4733   */\n      tag_114\n        /* \"#utility.yul\":4728:4732   */\n      dup3\n        /* \"#utility.yul\":4706:4733   */\n      tag_78\n      jump\t// in\n    tag_114:\n        /* \"#utility.yul\":4698:4704   */\n      dup2\n        /* \"#utility.yul\":4694:4734   */\n      add\n        /* \"#utility.yul\":4836:4842   */\n      dup2\n        /* \"#utility.yul\":4824:4834   */\n      dup2\n        /* \"#utility.yul\":4821:4843   */\n      lt\n        /* \"#utility.yul\":4800:4818   */\n      0xffffffffffffffff\n        /* \"#utility.yul\":4788:4798   */\n      dup3\n        /* \"#utility.yul\":4785:4819   */\n      gt\n        /* \"#utility.yul\":4782:4844   */\n      or\n        /* \"#utility.yul\":4779:4867   */\n      iszero\n      tag_115\n      jumpi\n        /* \"#utility.yul\":4847:4865   */\n      tag_116\n      tag_97\n      jump\t// in\n    tag_116:\n        /* \"#utility.yul\":4779:4867   */\n    tag_115:\n        /* \"#utility.yul\":4887:4897   */\n      dup1\n        /* \"#utility.yul\":4883:4885   */\n      0x40\n        /* \"#utility.yul\":4876:4898   */\n      mstore\n        /* \"#utility.yul\":4666:4904   */\n      pop\n        /* \"#utility.yul\":4623:4904   */\n      pop\n      pop\n      jump\t// out\n        /* \"#utility.yul\":4910:5090   */\n    tag_112:\n        /* \"#utility.yul\":4958:5035   */\n      0x4e487b7100000000000000000000000000000000000000000000000000000000\n        /* \"#utility.yul\":4955:4956   */\n      0x00\n        /* \"#utility.yul\":4948:5036   */\n      mstore\n        /* \"#utility.yul\":5055:5059   */\n      0x22\n        /* \"#utility.yul\":5052:5053   */\n      0x04\n        /* \"#utility.yul\":5045:5060   */\n      mstore\n        /* \"#utility.yul\":5079:5083   */\n      0x24\n        /* \"#utility.yul\":5076:5077   */\n      0x00\n        /* \"#utility.yul\":5069:5084   */\n      revert\n        /* \"#utility.yul\":5096:5276   */\n    tag_97:\n        /* \"#utility.yul\":5144:5221   */\n      0x4e487b7100000000000000000000000000000000000000000000000000000000\n        /* \"#utility.yul\":5141:5142   */\n      0x00\n        /* \"#utility.yul\":5134:5222   */\n      mstore\n        /* \"#utility.yul\":5241:5245   */\n      0x41\n        /* \"#utility.yul\":5238:5239   */\n      0x04\n        /* \"#utility.yul\":5231:5246   */\n      mstore\n        /* \"#utility.yul\":5265:5269   */\n      0x24\n        /* \"#utility.yul\":5262:5263   */\n      0x00\n        /* \"#utility.yul\":5255:5270   */\n      revert\n        /* \"#utility.yul\":5282:5399   */\n    tag_51:\n        /* \"#utility.yul\":5391:5392   */\n      0x00\n        /* \"#utility.yul\":5388:5389   */\n      dup1\n        /* \"#utility.yul\":5381:5393   */\n      revert\n        /* \"#utility.yul\":5405:5522   */\n    tag_44:\n        /* \"#utility.yul\":5514:5515   */\n      0x00\n        /* \"#utility.yul\":5511:5512   */\n      dup1\n        /* \"#utility.yul\":5504:5516   */\n      revert\n        /* \"#utility.yul\":5528:5645   */\n    tag_63:\n        /* \"#utility.yul\":5637:5638   */\n      0x00\n        /* \"#utility.yul\":5634:5635   */\n      dup1\n        /* \"#utility.yul\":5627:5639   */\n      revert\n        /* \"#utility.yul\":5651:5768   */\n    tag_60:\n        /* \"#utility.yul\":5760:5761   */\n      0x00\n        /* \"#utility.yul\":5757:5758   */\n      dup1\n        /* \"#utility.yul\":5750:5762   */\n      revert\n        /* \"#utility.yul\":5774:5876   */\n    tag_78:\n        /* \"#utility.yul\":5815:5821   */\n      0x00\n        /* \"#utility.yul\":5866:5868   */\n      0x1f\n        /* \"#utility.yul\":5862:5869   */\n      not\n        /* \"#utility.yul\":5857:5859   */\n      0x1f\n        /* \"#utility.yul\":5850:5855   */\n      dup4\n        /* \"#utility.yul\":5846:5860   */\n      add\n        /* \"#utility.yul\":5842:5870   */\n      and\n        /* \"#utility.yul\":5832:5870   */\n      swap1\n      pop\n        /* \"#utility.yul\":5774:5876   */\n      swap2\n      swap1\n      pop\n      jump\t// out\n        /* \"#utility.yul\":5882:6004   */\n    tag_56:\n        /* \"#utility.yul\":5955:5979   */\n      tag_125\n        /* \"#utility.yul\":5973:5978   */\n      dup2\n        /* \"#utility.yul\":5955:5979   */\n      tag_82\n      jump\t// in\n    tag_125:\n        /* \"#utility.yul\":5948:5953   */\n      dup2\n        /* \"#utility.yul\":5945:5980   */\n      eq\n        /* \"#utility.yul\":5935:5998   */\n      tag_126\n      jumpi\n        /* \"#utility.yul\":5994:5995   */\n      0x00\n        /* \"#utility.yul\":5991:5992   */\n      dup1\n        /* \"#utility.yul\":5984:5996   */\n      revert\n        /* \"#utility.yul\":5935:5998   */\n    tag_126:\n        /* \"#utility.yul\":5882:6004   */\n      pop\n      jump\t// out\n\n    auxdata: 0xa26469706673582212207f1055c274ba087e3671bb8dcfa70f8768aa0b8cc109894c4bb88fb0333df5e764736f6c63430008070033\n}\n",
				"bytecode": {
					"linkReferences": {},
					"object": "608060405234801561001057600080fd5b50610568806100206000396000f3fe608060405234801561001057600080fd5b506004361061004c5760003560e01c80632e64cec1146100515780636057361d1461006f5780638bab8dd51461008b5780639e7a13ad146100bb575b600080fd5b6100596100ec565b604051610066919061032c565b60405180910390f35b610089600480360381019061008491906102b7565b6100f5565b005b6100a560048036038101906100a0919061026e565b6100ff565b6040516100b2919061032c565b60405180910390f35b6100d560048036038101906100d091906102b7565b61012d565b6040516100e3929190610347565b60405180910390f35b60008054905090565b8060008190555050565b6002818051602081018201805184825260208301602085012081835280955050505050506000915090505481565b6001818154811061013d57600080fd5b906000526020600020906002020160009150905080600001549080600101805461016690610435565b80601f016020809104026020016040519081016040528092919081815260200182805461019290610435565b80156101df5780601f106101b4576101008083540402835291602001916101df565b820191906000526020600020905b8154815290600101906020018083116101c257829003601f168201915b5050505050905082565b60006101fc6101f78461039c565b610377565b905082815260208101848484011115610218576102176104fb565b5b6102238482856103f3565b509392505050565b600082601f8301126102405761023f6104f6565b5b81356102508482602086016101e9565b91505092915050565b6000813590506102688161051b565b92915050565b60006020828403121561028457610283610505565b5b600082013567ffffffffffffffff8111156102a2576102a1610500565b5b6102ae8482850161022b565b91505092915050565b6000602082840312156102cd576102cc610505565b5b60006102db84828501610259565b91505092915050565b60006102ef826103cd565b6102f981856103d8565b9350610309818560208601610402565b6103128161050a565b840191505092915050565b610326816103e9565b82525050565b6000602082019050610341600083018461031d565b92915050565b600060408201905061035c600083018561031d565b818103602083015261036e81846102e4565b90509392505050565b6000610381610392565b905061038d8282610467565b919050565b6000604051905090565b600067ffffffffffffffff8211156103b7576103b66104c7565b5b6103c08261050a565b9050602081019050919050565b600081519050919050565b600082825260208201905092915050565b6000819050919050565b82818337600083830152505050565b60005b83811015610420578082015181840152602081019050610405565b8381111561042f576000848401525b50505050565b6000600282049050600182168061044d57607f821691505b6020821081141561046157610460610498565b5b50919050565b6104708261050a565b810181811067ffffffffffffffff8211171561048f5761048e6104c7565b5b80604052505050565b7f4e487b7100000000000000000000000000000000000000000000000000000000600052602260045260246000fd5b7f4e487b7100000000000000000000000000000000000000000000000000000000600052604160045260246000fd5b600080fd5b600080fd5b600080fd5b600080fd5b6000601f19601f8301169050919050565b610524816103e9565b811461052f57600080fd5b5056fea26469706673582212207f1055c274ba087e3671bb8dcfa70f8768aa0b8cc109894c4bb88fb0333df5e764736f6c63430008070033",
					"opcodes": "PUSH1 0x80 PUSH1 0x40 MSTORE CALLVALUE DUP1 ISZERO PUSH2 0x10 JUMPI PUSH1 0x0 DUP1 REVERT JUMPDEST POP PUSH2 0x568 DUP1 PUSH2 0x20 PUSH1 0x0 CODECOPY PUSH1 0x0 RETURN INVALID PUSH1 0x80 PUSH1 0x40 MSTORE CALLVALUE DUP1 ISZERO PUSH2 0x10 JUMPI PUSH1 0x0 DUP1 REVERT JUMPDEST POP PUSH1 0x4 CALLDATASIZE LT PUSH2 0x4C JUMPI PUSH1 0x0 CALLDATALOAD PUSH1 0xE0 SHR DUP1 PUSH4 0x2E64CEC1 EQ PUSH2 0x51 JUMPI DUP1 PUSH4 0x6057361D EQ PUSH2 0x6F JUMPI DUP1 PUSH4 0x8BAB8DD5 EQ PUSH2 0x8B JUMPI DUP1 PUSH4 0x9E7A13AD EQ PUSH2 0xBB JUMPI JUMPDEST PUSH1 0x0 DUP1 REVERT JUMPDEST PUSH2 0x59 PUSH2 0xEC JUMP JUMPDEST PUSH1 0x40 MLOAD PUSH2 0x66 SWAP2 SWAP1 PUSH2 0x32C JUMP JUMPDEST PUSH1 0x40 MLOAD DUP1 SWAP2 SUB SWAP1 RETURN JUMPDEST PUSH2 0x89 PUSH1 0x4 DUP1 CALLDATASIZE SUB DUP2 ADD SWAP1 PUSH2 0x84 SWAP2 SWAP1 PUSH2 0x2B7 JUMP JUMPDEST PUSH2 0xF5 JUMP JUMPDEST STOP JUMPDEST PUSH2 0xA5 PUSH1 0x4 DUP1 CALLDATASIZE SUB DUP2 ADD SWAP1 PUSH2 0xA0 SWAP2 SWAP1 PUSH2 0x26E JUMP JUMPDEST PUSH2 0xFF JUMP JUMPDEST PUSH1 0x40 MLOAD PUSH2 0xB2 SWAP2 SWAP1 PUSH2 0x32C JUMP JUMPDEST PUSH1 0x40 MLOAD DUP1 SWAP2 SUB SWAP1 RETURN JUMPDEST PUSH2 0xD5 PUSH1 0x4 DUP1 CALLDATASIZE SUB DUP2 ADD SWAP1 PUSH2 0xD0 SWAP2 SWAP1 PUSH2 0x2B7 JUMP JUMPDEST PUSH2 0x12D JUMP JUMPDEST PUSH1 0x40 MLOAD PUSH2 0xE3 SWAP3 SWAP2 SWAP1 PUSH2 0x347 JUMP JUMPDEST PUSH1 0x40 MLOAD DUP1 SWAP2 SUB SWAP1 RETURN JUMPDEST PUSH1 0x0 DUP1 SLOAD SWAP1 POP SWAP1 JUMP JUMPDEST DUP1 PUSH1 0x0 DUP2 SWAP1 SSTORE POP POP JUMP JUMPDEST PUSH1 0x2 DUP2 DUP1 MLOAD PUSH1 0x20 DUP2 ADD DUP3 ADD DUP1 MLOAD DUP5 DUP3 MSTORE PUSH1 0x20 DUP4 ADD PUSH1 0x20 DUP6 ADD KECCAK256 DUP2 DUP4 MSTORE DUP1 SWAP6 POP POP POP POP POP POP PUSH1 0x0 SWAP2 POP SWAP1 POP SLOAD DUP2 JUMP JUMPDEST PUSH1 0x1 DUP2 DUP2 SLOAD DUP2 LT PUSH2 0x13D JUMPI PUSH1 0x0 DUP1 REVERT JUMPDEST SWAP1 PUSH1 0x0 MSTORE PUSH1 0x20 PUSH1 0x0 KECCAK256 SWAP1 PUSH1 0x2 MUL ADD PUSH1 0x0 SWAP2 POP SWAP1 POP DUP1 PUSH1 0x0 ADD SLOAD SWAP1 DUP1 PUSH1 0x1 ADD DUP1 SLOAD PUSH2 0x166 SWAP1 PUSH2 0x435 JUMP JUMPDEST DUP1 PUSH1 0x1F ADD PUSH1 0x20 DUP1 SWAP2 DIV MUL PUSH1 0x20 ADD PUSH1 0x40 MLOAD SWAP1 DUP2 ADD PUSH1 0x40 MSTORE DUP1 SWAP3 SWAP2 SWAP1 DUP2 DUP2 MSTORE PUSH1 0x20 ADD DUP3 DUP1 SLOAD PUSH2 0x192 SWAP1 PUSH2 0x435 JUMP JUMPDEST DUP1 ISZERO PUSH2 0x1DF JUMPI DUP1 PUSH1 0x1F LT PUSH2 0x1B4 JUMPI PUSH2 0x100 DUP1 DUP4 SLOAD DIV MUL DUP4 MSTORE SWAP2 PUSH1 0x20 ADD SWAP2 PUSH2 0x1DF JUMP JUMPDEST DUP3 ADD SWAP2 SWAP1 PUSH1 0x0 MSTORE PUSH1 0x20 PUSH1 0x0 KECCAK256 SWAP1 JUMPDEST DUP2 SLOAD DUP2 MSTORE SWAP1 PUSH1 0x1 ADD SWAP1 PUSH1 0x20 ADD DUP1 DUP4 GT PUSH2 0x1C2 JUMPI DUP3 SWAP1 SUB PUSH1 0x1F AND DUP3 ADD SWAP2 JUMPDEST POP POP POP POP POP SWAP1 POP DUP3 JUMP JUMPDEST PUSH1 0x0 PUSH2 0x1FC PUSH2 0x1F7 DUP5 PUSH2 0x39C JUMP JUMPDEST PUSH2 0x377 JUMP JUMPDEST SWAP1 POP DUP3 DUP2 MSTORE PUSH1 0x20 DUP2 ADD DUP5 DUP5 DUP5 ADD GT ISZERO PUSH2 0x218 JUMPI PUSH2 0x217 PUSH2 0x4FB JUMP JUMPDEST JUMPDEST PUSH2 0x223 DUP5 DUP3 DUP6 PUSH2 0x3F3 JUMP JUMPDEST POP SWAP4 SWAP3 POP POP POP JUMP JUMPDEST PUSH1 0x0 DUP3 PUSH1 0x1F DUP4 ADD SLT PUSH2 0x240 JUMPI PUSH2 0x23F PUSH2 0x4F6 JUMP JUMPDEST JUMPDEST DUP2 CALLDATALOAD PUSH2 0x250 DUP5 DUP3 PUSH1 0x20 DUP7 ADD PUSH2 0x1E9 JUMP JUMPDEST SWAP2 POP POP SWAP3 SWAP2 POP POP JUMP JUMPDEST PUSH1 0x0 DUP2 CALLDATALOAD SWAP1 POP PUSH2 0x268 DUP2 PUSH2 0x51B JUMP JUMPDEST SWAP3 SWAP2 POP POP JUMP JUMPDEST PUSH1 0x0 PUSH1 0x20 DUP3 DUP5 SUB SLT ISZERO PUSH2 0x284 JUMPI PUSH2 0x283 PUSH2 0x505 JUMP JUMPDEST JUMPDEST PUSH1 0x0 DUP3 ADD CALLDATALOAD PUSH8 0xFFFFFFFFFFFFFFFF DUP2 GT ISZERO PUSH2 0x2A2 JUMPI PUSH2 0x2A1 PUSH2 0x500 JUMP JUMPDEST JUMPDEST PUSH2 0x2AE DUP5 DUP3 DUP6 ADD PUSH2 0x22B JUMP JUMPDEST SWAP2 POP POP SWAP3 SWAP2 POP POP JUMP JUMPDEST PUSH1 0x0 PUSH1 0x20 DUP3 DUP5 SUB SLT ISZERO PUSH2 0x2CD JUMPI PUSH2 0x2CC PUSH2 0x505 JUMP JUMPDEST JUMPDEST PUSH1 0x0 PUSH2 0x2DB DUP5 DUP3 DUP6 ADD PUSH2 0x259 JUMP JUMPDEST SWAP2 POP POP SWAP3 SWAP2 POP POP JUMP JUMPDEST PUSH1 0x0 PUSH2 0x2EF DUP3 PUSH2 0x3CD JUMP JUMPDEST PUSH2 0x2F9 DUP2 DUP6 PUSH2 0x3D8 JUMP JUMPDEST SWAP4 POP PUSH2 0x309 DUP2 DUP6 PUSH1 0x20 DUP7 ADD PUSH2 0x402 JUMP JUMPDEST PUSH2 0x312 DUP2 PUSH2 0x50A JUMP JUMPDEST DUP5 ADD SWAP2 POP POP SWAP3 SWAP2 POP POP JUMP JUMPDEST PUSH2 0x326 DUP2 PUSH2 0x3E9 JUMP JUMPDEST DUP3 MSTORE POP POP JUMP JUMPDEST PUSH1 0x0 PUSH1 0x20 DUP3 ADD SWAP1 POP PUSH2 0x341 PUSH1 0x0 DUP4 ADD DUP5 PUSH2 0x31D JUMP JUMPDEST SWAP3 SWAP2 POP POP JUMP JUMPDEST PUSH1 0x0 PUSH1 0x40 DUP3 ADD SWAP1 POP PUSH2 0x35C PUSH1 0x0 DUP4 ADD DUP6 PUSH2 0x31D JUMP JUMPDEST DUP2 DUP2 SUB PUSH1 0x20 DUP4 ADD MSTORE PUSH2 0x36E DUP2 DUP5 PUSH2 0x2E4 JUMP JUMPDEST SWAP1 POP SWAP4 SWAP3 POP POP POP JUMP JUMPDEST PUSH1 0x0 PUSH2 0x381 PUSH2 0x392 JUMP JUMPDEST SWAP1 POP PUSH2 0x38D DUP3 DUP3 PUSH2 0x467 JUMP JUMPDEST SWAP2 SWAP1 POP JUMP JUMPDEST PUSH1 0x0 PUSH1 0x40 MLOAD SWAP1 POP SWAP1 JUMP JUMPDEST PUSH1 0x0 PUSH8 0xFFFFFFFFFFFFFFFF DUP3 GT ISZERO PUSH2 0x3B7 JUMPI PUSH2 0x3B6 PUSH2 0x4C7 JUMP JUMPDEST JUMPDEST PUSH2 0x3C0 DUP3 PUSH2 0x50A JUMP JUMPDEST SWAP1 POP PUSH1 0x20 DUP2 ADD SWAP1 POP SWAP2 SWAP1 POP JUMP JUMPDEST PUSH1 0x0 DUP2 MLOAD SWAP1 POP SWAP2 SWAP1 POP JUMP JUMPDEST PUSH1 0x0 DUP3 DUP3 MSTORE PUSH1 0x20 DUP3 ADD SWAP1 POP SWAP3 SWAP2 POP POP JUMP JUMPDEST PUSH1 0x0 DUP2 SWAP1 POP SWAP2 SWAP1 POP JUMP JUMPDEST DUP3 DUP2 DUP4 CALLDATACOPY PUSH1 0x0 DUP4 DUP4 ADD MSTORE POP POP POP JUMP JUMPDEST PUSH1 0x0 JUMPDEST DUP4 DUP2 LT ISZERO PUSH2 0x420 JUMPI DUP1 DUP3 ADD MLOAD DUP2 DUP5 ADD MSTORE PUSH1 0x20 DUP2 ADD SWAP1 POP PUSH2 0x405 JUMP JUMPDEST DUP4 DUP2 GT ISZERO PUSH2 0x42F JUMPI PUSH1 0x0 DUP5 DUP5 ADD MSTORE JUMPDEST POP POP POP POP JUMP JUMPDEST PUSH1 0x0 PUSH1 0x2 DUP3 DIV SWAP1 POP PUSH1 0x1 DUP3 AND DUP1 PUSH2 0x44D JUMPI PUSH1 0x7F DUP3 AND SWAP2 POP JUMPDEST PUSH1 0x20 DUP3 LT DUP2 EQ ISZERO PUSH2 0x461 JUMPI PUSH2 0x460 PUSH2 0x498 JUMP JUMPDEST JUMPDEST POP SWAP2 SWAP1 POP JUMP JUMPDEST PUSH2 0x470 DUP3 PUSH2 0x50A JUMP JUMPDEST DUP2 ADD DUP2 DUP2 LT PUSH8 0xFFFFFFFFFFFFFFFF DUP3 GT OR ISZERO PUSH2 0x48F JUMPI PUSH2 0x48E PUSH2 0x4C7 JUMP JUMPDEST JUMPDEST DUP1 PUSH1 0x40 MSTORE POP POP POP JUMP JUMPDEST PUSH32 0x4E487B7100000000000000000000000000000000000000000000000000000000 PUSH1 0x0 MSTORE PUSH1 0x22 PUSH1 0x4 MSTORE PUSH1 0x24 PUSH1 0x0 REVERT JUMPDEST PUSH32 0x4E487B7100000000000000000000000000000000000000000000000000000000 PUSH1 0x0 MSTORE PUSH1 0x41 PUSH1 0x4 MSTORE PUSH1 0x24 PUSH1 0x0 REVERT JUMPDEST PUSH1 0x0 DUP1 REVERT JUMPDEST PUSH1 0x0 DUP1 REVERT JUMPDEST PUSH1 0x0 DUP1 REVERT JUMPDEST PUSH1 0x0 DUP1 REVERT JUMPDEST PUSH1 0x0 PUSH1 0x1F NOT PUSH1 0x1F DUP4 ADD AND SWAP1 POP SWAP2 SWAP1 POP JUMP JUMPDEST PUSH2 0x524 DUP2 PUSH2 0x3E9 JUMP JUMPDEST DUP2 EQ PUSH2 0x52F JUMPI PUSH1 0x0 DUP1 REVERT JUMPDEST POP JUMP INVALID LOG2 PUSH5 0x6970667358 0x22 SLT KECCAK256 PUSH32 0x1055C274BA087E3671BB8DCFA70F8768AA0B8CC109894C4BB88FB0333DF5E764 PUSH20 0x6F6C634300080700330000000000000000000000 "
				},
				"gasEstimates": {
					"creation": {
						"codeDepositCost": "276800",
						"executionCost": "318",
						"totalCost": "277118"
					},
					"external": {
						"nameToFavoriteNumber(string)": "infinite",
						"people(uint256)": "infinite",
						"retrieve()": "2415",
						"store(uint256)": "22520"
					}
				},
				"methodIdentifiers": {
					"nameToFavoriteNumber(string)": "8bab8dd5",
					"people(uint256)": "9e7a13ad",
					"retrieve()": "2e64cec1",
					"store(uint256)": "6057361d"
				}
			},
			"storageLayout": {
				"storage": [
					{
						"astId": 3,
						"contract": "SimpleStorage.sol:SimpleStorage",
						"label": "favoriteNumber",
						"offset": 0,
						"slot": "0",
						"type": "t_uint256"
					},
					{
						"astId": 12,
						"contract": "SimpleStorage.sol:SimpleStorage",
						"label": "people",
						"offset": 0,
						"slot": "1",
						"type": "t_array(t_struct(People)8_storage)dyn_storage"
					},
					{
						"astId": 16,
						"contract": "SimpleStorage.sol:SimpleStorage",
						"label": "nameToFavoriteNumber",
						"offset": 0,
						"slot": "2",
						"type": "t_mapping(t_string_memory_ptr,t_uint256)"
					}
				],
				"types": {
					"t_array(t_struct(People)8_storage)dyn_storage": {
						"base": "t_struct(People)8_storage",
						"encoding": "dynamic_array",
						"label": "struct SimpleStorage.People[]",
						"numberOfBytes": "32"
					},
					"t_mapping(t_string_memory_ptr,t_uint256)": {
						"encoding": "mapping",
						"key": "t_string_memory_ptr",
						"label": "mapping(string => uint256)",
						"numberOfBytes": "32",
						"value": "t_uint256"
					},
					"t_string_memory_ptr": {
						"encoding": "bytes",
						"label": "string",
						"numberOfBytes": "32"
					},
					"t_string_storage": {
						"encoding": "bytes",
						"label": "string",
						"numberOfBytes": "32"
					},
					"t_struct(People)8_storage": {
						"encoding": "inplace",
						"label": "struct SimpleStorage.People",
						"members": [
							{
								"astId": 5,
								"contract": "SimpleStorage.sol:SimpleStorage",
								"label": "favoriteNumber",
								"offset": 0,
								"slot": "0",
								"type": "t_uint256"
							},
							{
								"astId": 7,
								"contract": "SimpleStorage.sol:SimpleStorage",
								"label": "name",
								"offset": 0,
								"slot": "1",
								"type": "t_string_storage"
							}
						],
						"numberOfBytes": "64"
					},
					"t_uint256": {
						"encoding": "inplace",
						"label": "uint256",
						"numberOfBytes": "32"
					}
				}
			},
			"userdoc": {
				"kind": "user",
				"methods": {},
				"version": 1
			}
		}
	}
}